:100000000C94BC0D0C94E90D0C94E90D0C94E90DC5
:100010000C94E90D0C94E90D0C94E90D0C94E90D88
:100020000C94E90D0C94E90D0C94E90D0C94E90D78
:100030000C942A180C94E90D0C94E90D0C94E90D1C
:100040000C94E90D0C94E90D0C94E90D0C94E90D58
:100050000C94E90D0C94E90D0C94E90D0C941E46DA
:100060000C94E90D0C9460490C94A44A0C94E90D8D
:100070000C94E90D0C94E90D0C94E90D0C94E90D28
:100080000C94E90D0C94E90D0C94E90D0C94E90D18
:100090000C94A0490C94E34A0C94E90D0C9455215E
:1000A0000C94E90D0C94E90D0C94E90D0C94E90DF8
:1000B0000C94E90D0C94E90D0C94E90D0C94E90DE8
:1000C0000C94E90D0C94E90D0C94E90D0C94E049A5
:1000D0000C94224B0C94E90D0C94204A0C94614B27
:1000E0000C94E90D7D00222C20226E6574776F72CE
:1000F0006B73223A20007B20226D6163223A20221A
:1001000000436F6E6E656374696F6E3A20636C6F47
:1001100073650043616368652D436F6E74726F6C25
:100120003A206E6F2D636163686500416363657398
:10013000732D436F6E74726F6C2D416C6C6F772DE5
:100140004F726967696E3A202A005472616E736655
:1001500065722D456E636F64696E673A20636875DA
:100160006E6B656400436F6E74656E742D547970A8
:10017000653A206170706C69636174696F6E2F6A93
:10018000736F6E00485454502F312E31203230306E
:10019000204F4B004661696C656420746F20636F6B
:1001A0006E6E6563740073756363657373002C0012
:1001B0002C002C002C002C002C002C00436F6E6EA9
:1001C000656374696F6E3A20636C6F736500582DB8
:1001D00042706E2D4D6F64653A2063616C696200F8
:1001E00043616368652D436F6E74726F6C3A206E65
:1001F0006F2D636163686500436F6E74656E742D67
:10020000547970653A206170706C69636174696FCC
:100210006E2F766E642E626974706F6E6963732ED2
:1002200076322E6465766963655465787400582D5E
:1002300042706E2D466572743A20003A0041757422
:10024000686F72697A6174696F6E3A2042504E5FCE
:1002500044455649434520005472616E7366657289
:100260002D456E636F64696E673A206368756E6BC7
:100270006564004163636570743A206170706C69F5
:10028000636174696F6E2F766E642E626974706F2D
:100290006E6963732E76312E646576696365546585
:1002A000787400557365722D4167656E743A20420B
:1002B0006974706F6E6963732D4465766963652038
:1002C0007631202841726475696E6F204D656761D3
:1002D0002900486F73743A207777772E62697470BB
:1002E0006F6E6963732E636F6D002F737461747525
:1002F0007320485454502F312E3100504F53542006
:100300002F6170692F646576696365732F002D3ED8
:100310002053656E64696E672072657175657374CC
:100320002E2E2E200073756363657373002C002CD2
:10033000002C002C002C002C002C00436F6E6E65EE
:100340006374696F6E3A20636C6F736500582D4259
:10035000706E2D4D6F64653A2063616C6962004375
:10036000616368652D436F6E74726F6C3A206E6FB7
:100370002D636163686500436F6E74656E742D5400
:100380007970653A206170706C69636174696F6E31
:100390002F766E642E626974706F6E6963732E7649
:1003A000322E6465766963655465787400582D4211
:1003B000706E2D466572743A20003A00417574687B
:1003C0006F72697A6174696F6E3A2042504E5F4471
:1003D000455649434520005472616E736665722D1F
:1003E000456E636F64696E673A206368756E6B650E
:1003F00064004163636570743A206170706C696376
:100400006174696F6E2F766E642E626974706F6EA0
:100410006963732E76312E646576696365546578F9
:100420007400557365722D4167656E743A20426998
:1004300074706F6E6963732D4465766963652076A9
:1004400031202841726475696E6F204D656761299E
:1004500000486F73743A207777772E626974706FF3
:100460006E6963732E636F6D002F7374617475739F
:1004700020485454502F312E3100504F5354202FC8
:100480006170692F646576696365732F002D2D2D6A
:100490002052455155455354202D2D2D002D3E20E1
:1004A0006F70656E696E6720636F6E6E65637469E9
:1004B0006F6E2E2E2E2000646F6E65007375636361
:1004C000657373002C002C002C002C002C002C00D9
:1004D0002C002F73746174757320485454502F315D
:1004E0002E3100504F5354202F6170692F64657670
:1004F000696365732F002D3E206372656174696EB8
:100500006720686173682E2E2E20002D3E204150FA
:10051000205265616479002D3E2053657420706F10
:10052000727420746F2038302C207265626F6F7483
:10053000696E67006661696C65640049503A202005
:100540002020200063726561746564002D3E205395
:10055000657474696E672075702041502E2E2E20B0
:10056000004E6F206E6574776F726B7320666F75C7
:100570006E642C207265747279696E67002D3E205E
:100580005363616E6E696E67206E6574776F726B10
:10059000732E2E2E2000616C726561647920617368
:1005A000736F636961746564006661696C6564207A
:1005B000746F206A6F696E006A6F696E6564002DE2
:1005C0003E20436F6E6E656374696E6720746F20A2
:1005D000776966692E2E2E20002D3E20496E636FAE
:1005E0007272656374206B6579732C207265736514
:1005F00074696E67005075626C6963204B65793A67
:1006000020200050726976617465204B65793A202C
:1006100000436F6E6E656374696F6E3A20636C6F32
:1006200073650043616368652D436F6E74726F6C10
:100630003A206E6F2D636163686500416363657383
:10064000732D436F6E74726F6C2D416C6C6F772DD0
:100650004F726967696E3A202A005472616E736640
:1006600065722D456E636F64696E673A20636875C5
:100670006E6B656400436F6E74656E742D54797093
:10068000653A206170706C69636174696F6E2F6A7E
:10069000736F6E00485454502F312E312032303059
:1006A000204F4B002D3E205361766564002D3E2087
:1006B000536574205075626C6963204B65793A20EC
:1006C000002D3E2053657420507269766174652058
:1006D0004B65793A20002D3E20536574204A4F49DE
:1006E0004E3A20002D3E2053657420535349443A1E
:1006F00020002D3E2053657420446576696365496A
:10070000443A20002D3E20536574205061737300DD
:100710002D3E205365742041757468204D6F6465CB
:100720000022207D00222C2022706B6579223A2045
:100730002200222C2022736B6579223A202200228B
:100740002C20226D6F6465223A202200222C202268
:1007500070617373223A2022007B202273736964D4
:10076000223A202200504B45593D00534B45593DFC
:10077000004D4F44453D00504153533D00535349B4
:10078000443D002D3E2052656365697665642050C6
:100790004F5354002D3E2053656E74204A534F4EE4
:1007A00020002D3E205265636569766564204745CB
:1007B00054207265717565737400556E6578706547
:1007C000637465642052657175657374203A200006
:1007D0002A4F50454E2A504F5354004F50454E2AF1
:1007E000504F53540050454E2A504F535400504FD1
:1007F000535400504F535400504F535400504F53D4
:1008000054002A4F50454E2A474554004F50454EFC
:100810002A4745540050454E2A47455400454E2A24
:10082000474554004E2A474554002A47455400473F
:100830004554002D2D2D2D2D2D2D20436C6F7365CE
:10084000202D2D2D2D2D2D2D006572726F72200003
:1008500063616C6962206D6F6465203D20004341D7
:100860004C49425F4D4F44453D007374617465735C
:10087000203D20005354415445533D0048545450AA
:100880002F312E312032303000646F6E6521002D03
:100890003E2053657474696E67204150204D6F642B
:1008A000652E2E2E200020646F6E6521002D3E20C7
:1008B0005265736F72696E67207769666920646537
:1008C0006661756C74732E2E2E007570646174658C
:1008D000206661696C65640073756363657373009A
:1008E0002A5265626F6F742A007265626F6F740DB1
:1008F000004F4B00333400626F6F7420696D616785
:10090000652033340D005570646174696E6720573B
:100910004946492E2E2E20005769666920757020A1
:10092000746F2064617465006E00322E34350024CB
:10093000242400202D2D2D2D002D2D2D2D20526510
:100940007175657374200043616C696272617465CE
:100950003A20002D2D2D2D2D2D2D2D2D2D2D2D2DF4
:100960002D2D2D2D2D2D2D2D002D2D2D2D2047659F
:10097000742073656E736F7273202D2D2D2D0057AB
:10098000494649204D6F64653A202020004D41437F
:100990003A20202020202020202000535349443A90
:1009A000202020202020202000726F76696E673181
:1009B000002D3E2054435020736574757020002D27
:1009C0003E204448435020456E61626C65642000BF
:1009D0004661696C656420746F2073746172742061
:1009E00077696669007761746572206C6576656CFD
:1009F0002E2E2E20000D0045432E2E2E20202020AE
:100A0000202020202020002D20454300720D005082
:100A10002C310D004C300D004C310D000D00704894
:100A20002E2E2E20202020202020202020002D20AF
:100A30007048004C300D004C300D0068756D6964D5
:100A40006974792E2E2E2020202000616972207476
:100A5000656D702E2E2E2020202000776174657227
:100A60002074656D702E2E2E2020002D205761746D
:100A700065722054656D70004661696C6564207410
:100A80006F2073657475702077617465722074656A
:100A90006D702073656E736F72003A200020202005
:100AA0003E2072656C617920006C696768742E2E37
:100AB0002E20202020202020002D206C757820530F
:100AC000656E736F72006E6F206C75782073656E43
:100AD000736F722064657465637465640065635F39
:100AE0006C6F2063616C696220636F6D706C6574FC
:100AF0006500450D005A320D0065635F6C6F206321
:100B0000616C696220626567756E0065635F686924
:100B10002063616C696220636F6D706C6574650041
:100B2000450D005A33300D00430D0065635F686961
:100B30002063616C696220626567756E0065635F42
:100B400064722063616C696220636F6D706C6574A0
:100B500065007A300D006472792063616C696220EF
:100B6000626567756E0070685F31302063616C6923
:100B70006220636F6D706C65746500450D00540DE7
:100B800000430D0070685F31302063616C69622042
:100B9000626567756E0070685F342063616C6962BE
:100BA00020636F6D706C65746500450D00460D0027
:100BB000430D0070685F342063616C696220626578
:100BC00067756E0070685F372063616C69622063CF
:100BD0006F6D706C65746500450D00530D00430D1D
:100BE0000070685F372063616C69622062656775B9
:100BF0006E002D3E20426F617264207265736574D1
:100C0000002D3E20496E697469616C697A696E676E
:100C10002073656E736F7273002D3E204465766994
:100C2000636520426F6F74002A2A2A2A2A2A2A2AF8
:100C30002A2A2A2A2A2A2A2A2A2A2A2A2A2A000068
:100C40005EBCE2613FDD83C29C7E20A3FD1F419D0F
:100C5000C3217FFCA2401E5F01E3BD3E6082DC2316
:100C60007D9FC1421CFEA0E1BF5D0380DE3C62BEF1
:100C7000E0025CDF81633D7C22C09E1D43A1FF46F4
:100C800018FAA427799BC584DA3866E5BB5907DBD7
:100C9000856739BAE406581947A5FB7826C49A65D2
:100CA0003BD987045AB8E6A7F91B45C6987A24F8B9
:100CB000A6441A99C7257B3A6486D85B05E7B98CA8
:100CC000D2306EEDB3510F4E10F2AC2F7193CD11A7
:100CD0004FADF3702ECC92D38D6F31B2EC0E50AF7E
:100CE000F1134DCE90722C6D33D18F0C52B0EE3289
:100CF0006C8ED0530DEFB1F0AE4C1291CF2D73CA64
:100D0000947628ABF517490856B4EA6937D58B575E
:100D100009EBB536688AD495CB2977F4AA4816E949
:100D2000B7550B88D6346A2B7597C94A14F6A87440
:100D30002AC896154BA9F7B6E80A54D7896B359897
:100D40002F8A4291443771CFFBC0B5A5DBB5E95B73
:100D5000C25639F111F159A4823F92D55E1CAB986D
:100D6000AA07D8015B8312BE853124C37D0C55745C
:100D70005DBE72FEB1DE80A706DC9B74F19BC1C133
:100D8000699BE48647BEEFC69DC10FCCA10C246FC2
:100D90002CE92DAA84744ADCA9B05CDA88F9765271
:100DA000513E986DC631A8C82703B0C77F59BFF31D
:100DB0000BE0C64791A7D55163CA06672929148558
:100DC0000AB72738211B2EFC6D2C4D130D385354B8
:100DD000730A65BB0A6A762EC9C281852C7292A1FC
:100DE000E8BFA24B661AA8708B4BC2A3516CC719FF
:100DF000E892D1240699D685350EF470A06A1016B3
:100E0000C1A419086C371E4C774827B5BCB034B361
:100E10000C1C394AAAD84E4FCA9C5BF36F2E68EE61
:100E2000828F746F63A5781478C8840802C78CFA1F
:100E3000FFBE90EB6C50A4F7A3F9BEF27871C667C1
:100E4000E6096A85AE67BB72F36E3C3AF54FA57F43
:100E5000520E518C68059BABD9831F19CDE05B66A0
:100E60007470206765742000736574206674702048
:100E70006D6F646500736574206674702074696DAD
:100E8000657200736574206674702066696C656EA7
:100E9000616D650073657420667470207061737392
:100EA000776F726400736574206674702075736563
:100EB00072007365742066747020646972007365D3
:100EC00074206674702072656D6F7465007365744C
:100ED00020667470206164647265737300636C6F64
:100EE00073653A20676F74202A434C4F532A002AB7
:100EF000434C4F532A00636C6F73650D0054657249
:100F00006D696E616C20726561647900556E6578FB
:100F100070656374656420726573703A2000466181
:100F2000696C656420746F20636F6E6E6563743ADC
:100F300020004F50454E2A00656E61626C65486F17
:100F40007374526573746F72653A2073746F72654F
:100F5000642000302E302E302E300073656E6474A5
:100F60006F3A206661696C656420746F20737461E8
:100F7000727420636F6D6D616E64003C74696D65A1
:100F80006F75743E00556E65787065637465642096
:100F9000636861723A20004661696C656420746F11
:100FA00020636F6E6E6563743A20004F50454E2A81
:100FB000005769466C7920686173206372617368B9
:100FC000656420616E642077696C6C207265626F65
:100FD0006F742E2E2E004661696C656420746F203C
:100FE0006765742070726F6D7074000D006F7065AE
:100FF0006E200031302E31302E31302E330032351C
:10100000352E3235352E3235352E30003136392EEB
:101010003235342E312E31003235352E3235352EE3
:10102000302E30003136392E3235342E312E31000B
:1010300036342062797465730050696E672074726B
:10104000790070696E6720007365742075206900EF
:101050006C656176650D0047573D000D006A6F694C
:101060006E20004173736F6369617465642100468B
:1010700041494C454400736574206164686F632086
:1010800070726F626500736574206164686F6320BD
:10109000626561636F6E0073657420776C616E20AA
:1010A00074780040420F000080841E000160EC5301
:1010B0000002808D5B00084054890009C0D8A70059
:1010C00003001BB7000A80A812010B00366E010C4A
:1010D000005125020D006CDC020E80F937030F73FE
:1010E000657420776C616E2072617465007365743D
:1010F000206F7074207265706C6163650073657435
:1011000020776C616E20706872617365007365741E
:1011100020776C616E206B65790073657420776C45
:10112000616E206368616E0073657420776C616E18
:1011300020737369640073657420776C616E206836
:1011400069646520310073657420776C616E206876
:101150006964652030007365742073797320696F4A
:1011600066756E630073657420636F6D6D207369BF
:101170007A650073657420636F6D6D206D617463B3
:10118000680073657420636F6D6D2074696D650010
:10119000302E302E302E30007365742062726F61F5
:1011A000646361737420696E74657276616C007338
:1011B00065742075617274206D6F64650073657469
:1011C0002074696D6520656E61626C65007365747D
:1011D0002074696D65207A6F6E6500736574207484
:1011E000696D6520706F7274007365742074696D29
:1011F000652061646472657373007365742069703F
:101200002070726F746F636F6C0073657420697007
:101210002070726F746F636F6C00736574206970F7
:1012200020646863700073657420646E7320616469
:1012300064726573730073657420697020676174EC
:1012400065776179007365742069702067617465E2
:1012500077617900736574206970206E65746D61C3
:10126000736B00736574206970206E65746D6173B3
:101270006B00536574486F73743A206661696C65DE
:101280006420746F20737461727420636F6D6D617C
:101290006E64007365742069702072656D6F74658B
:1012A0000073657420697020686F737400736574CF
:1012B00020697020686F73740073657420697020F2
:1012C0006C6F63616C706F72740073657420697009
:1012D00020616464726573730073657420697020A3
:1012E000616464726573730073657420776C616EFA
:1012F000206A6F696E0073657420776C616E20617F
:1013000075746800736574206F20640053657420E1
:10131000466163746F72792044656661756C74739D
:1013200000666163746F72792052455345540D0015
:101330002A5265626F6F742A007265626F6F740D56
:101340000053746F72696E6700736176650D0053A8
:1013500075697465730041646472657373004D410F
:10136000430053656300525353490043680053538D
:101370004944004E756D007363616E200D00534348
:10138000414E3A466F756E64203130005343414EF2
:101390003A466F756E642039005343414E3A466FAA
:1013A000756E642038005343414E3A466F756E6443
:1013B0002037005343414E3A466F756E6420360025
:1013C0005343414E3A466F756E6420350053434196
:1013D0004E3A466F756E642034005343414E3A4690
:1013E0006F756E642033005343414E3A466F756EFD
:1013F000642032005343414E3A466F756E6420318B
:10140000005343414E3A466F756E6420300046618A
:10141000696C656420746F207475726E206F6666E7
:1014200020737973207072696E7400736574207311
:101430007973207072696E746C766C2030007363FF
:10144000616E203530300D005343414E3A466F7582
:101450006E64203130005343414E3A466F756E64DE
:101460002039005343414E3A466F756E6420380070
:101470005343414E3A466F756E64203700534341E3
:101480004E3A466F756E642036005343414E3A46DD
:101490006F756E642035005343414E3A466F756E4A
:1014A000642034005343414E3A466F756E642033D6
:1014B000005343414E3A466F756E642032005343E9
:1014C000414E3A466F756E642031005343414E3AA7
:1014D000466F756E642030004661696C65642074E7
:1014E0006F20656E61626C65206E65772073636145
:1014F0006E20666F726D617400736574207379730A
:10150000207072696E746C766C20307834303030B4
:10151000007363616E200D005343414E3A466F7570
:101520006E64203130005343414E3A466F756E640D
:101530002039005343414E3A466F756E642038009F
:101540005343414E3A466F756E6420370053434112
:101550004E3A466F756E642036005343414E3A460C
:101560006F756E642035005343414E3A466F756E79
:10157000642034005343414E3A466F756E64203305
:10158000005343414E3A466F756E64203200534318
:10159000414E3A466F756E642031005343414E3AD6
:1015A000466F756E642030003C74696D656F7574AC
:1015B0003E004552523A2000414F4B0D0A00455221
:1015C000523A2000015544502C0000025443502C44
:1015D000000004534543555200085443505F4300F4
:1015E00010485454502C00205241572C00004053B6
:1015F0004D54502C005345525645520043414348E8
:1016000045004155544F4950004F4E004F4646004B
:101610006C6F6F6B75702000676574436F6E3A2056
:1016200054435020646973636F6E6E6563746564C0
:1016300000676574436F6E3A2054435020636F6EA9
:101640006E65637465640073686F7720630D00676F
:101650006574436F6E3A206661696C656420746FCF
:10166000207374617274004661696C656420746FE4
:1016700020657869740A0D00455849540D0A0065C3
:101680007869740D00434D440D0A0024242400435E
:101690004D440D0A002424240073657450726F6D4C
:1016A0007074206661696C6564006D756C74694D59
:1016B000617463685F503A20006D617463685F50C5
:1016C0003A20007265616454696D656F7574202DF0
:1016D0002074696D6564206F7574003A20003A20AB
:1016E0000064656275672064756D7000617661697C
:1016F0006C61626C653A207065656B203D20002A44
:101700004F50454E2A002A434C4F532A004552520F
:101710004F52207065656B2E322062756666657269
:10172000206F7665726C6F77004552524F52207071
:1017300065656B2E3120627566666572206F766511
:10174000726C6F77004661696C656420746F206508
:1017500078697420636F6D6D616E64206D6F646570
:10176000004661696C656420746F20656E746572F3
:1017700020636F6D6D616E64206D6F6465004661FE
:10178000696C656420746F2073657420636F6D6D80
:101790002072656D6F74650073657420636F6D6D85
:1017A0002072656D6F74652030004661696C6564F8
:1017B00020746F207475726E206F66662073797363
:1017C000207072696E740073657420737973207071
:1017D00072696E746C766C2030004661696C656469
:1017E00020746F207475726E206F66662065636862
:1017F0006F007365742075206D203100676574205B
:1018000069700D0049503D004E4D3D0047573D0069
:10181000676574206D61630D004D616320416464F0
:10182000723D0067657420776C616E0D00535349FB
:10183000443D00676574206F70740D0044657669DF
:10184000636549643D0067657420750D00426175EC
:1018500064726174653D0073686F772074696D65AB
:101860000D0054696D653D00557054696D653D000E
:101870006765742074696D650D005A6F6E653D0073
:1018800067657420646E730D0041646472657373E0
:101890003D0073686F77207420740D005254433DEF
:1018A00000444843503D004D6F64653D00676574DA
:1018B00020636F6D6D0D00466C75736854696D65BE
:1018C000723D004D61746368436861723D00466C0F
:1018D00075736853697A653D0073686F772072731A
:1018E00073690D00525353493D282D00464C414722
:1018F000533D307800484F53543D0050524F544FA1
:101900003D00676574206164686F630D0042656126
:10191000636F6E3D0050726F62653D005265626F8D
:101920006F743D004A6F696E3D00526174653D0001
:101930005478506F7765723D0067657420660D00BE
:10194000557365723D00506173733D0000002100C6
:10195000240027002A002D00300033000101000080
:10196000040107010A0100002200250028002B00C5
:101970002E003100340002010000050108010B01B6
:10198000000020002300260029002C002F00320038
:101990000001000003010601090105050505070511
:1019A00008080808020202020A0A080804040404DB
:1019B0000101010101010101030303030303030307
:1019C000040707070C0C0C0C0C0C0C0C0202020296
:1019D00006060606060606060B0B0B0B0B0B0B0B7F
:1019E0000102102020080810204010204080020131
:1019F0000201080402010102040810204080804016
:101A00002010080402018004020180402010080414
:101A100002010804020101020408102040800102B2
:101A20000408102040800000090A02080B0C0D0772
:101A30000603040100000000000000000000000098
:101A40000000000000000000000000000000000096
:101A5000000011100F000000000000000000000056
:101A600000000000000000000000000000407A10AC
:101A7000F35A00A0724E18090010A5D4E80000E83F
:101A80007648170000E40B54020000CA9A3B00009D
:101A900000E1F505000080969800000040420F002C
:101AA0000000A08601000000102700000000E803ED
:101AB000000000006400000000000A0000000000B8
:101AC0000100000000002C76D888DC674F0823DF77
:101AD000C1DFAE59E1B1B796E5E3E453C63AE6514A
:101AE000997696E8E6C28426EB898C9B62ED407C71
:101AF0006FFCEFBC9C9F40F2BAA56FA5F490055A0D
:101B00002AF75C936B6CF9676DC11BFCE0E40D4731
:101B1000FEF520E6B500D0ED902E03009435770554
:101B20000080841E080000204E0A000000C80C330C
:101B30003333330F986E12831141EF8D2114893B9B
:101B4000E65516CFFEE6DB18D1844B381BF77C1D1B
:101B5000901DA4BBE424203284725E228100C9F16E
:101B600024ECA1E53D273311FB1F392F7433413499
:101B70005B36D14C134E2E1111241FBECFEFD1E294
:101B8000DEBFCDBF00E00CBF13E0A0E0B2E0E6EAAC
:101B9000FEEA00E00BBF02C007900D92A23BB10726
:101BA000D9F71BBE1BE0A2EBB3E001C01D92A5302C
:101BB000B107E1F71BE1C6E7DBE104C02297FE01B4
:101BC0000E940157C636D107C9F70E94614E0C9496
:101BD00047570C940000EF92FF920F931F93F22F40
:101BE000F02E47FD02C0E4E001C0E4E1242F3327DA
:101BF00027FD309537FF03C0309521953F4F4F2D7E
:101C0000512F0F2FEE2EA2D08F2D912F1F910F91BC
:101C1000FF90EF900895FB01DC0102C005900D924A
:101C200041505040D8F70895FC0105900020E9F795
:101C3000809590958E0F9F1F0895FB01DC01415008
:101C4000504030F08D910590801919F40020B9F7BB
:101C5000881B990B0895FB01DC014150504048F06E
:101C600005900D920020C9F701C01D9241505040CF
:101C7000E0F70895FB01DC0102C001900D92415094
:101C80005040D8F70895FB01DC018D9181341CF0A0
:101C90008B350CF4805E619161341CF06B350CF473
:101CA000605E861B611189F3990B0895FB01DC01CD
:101CB00001900D920020E1F70895FB01DC014150F5
:101CC000504048F001900D920020C9F701C01D92CC
:101CD00041505040E0F70895FB0151915523A9F080
:101CE000BF01DC014D9145174111E1F759F4CD01D8
:101CF0000190002049F04D9140154111C9F3FB01BD
:101D00004111EFCF81E090E001970895FB019F0121
:101D1000E8944230C4F04532B4F44A3029F497FBD9
:101D20001EF4909581959F4F642F77270E94B65699
:101D3000805D8A330CF0895D8193CB010097A1F718
:101D400016F45DE251931082C90139C2A9E0B0E0F6
:101D5000ECEAFEE00C9414576A01122FA02EBE2C60
:101D60002BE3201718F42CE3922E02C0902E9394AC
:101D7000AE014F5F5F4F27E0092D49D1BC0189813A
:101D8000E82EFF24C70189709070019711F4ADE22D
:101D900009C0B1FE02C0ABE205C0B0FC02C0A0E0C9
:101DA00001C0A0E2E3FE3BC0AA2311F423E001C07E
:101DB00024E0211710F020E002C0121B212FEB2C91
:101DC000B4FE02C0322F0AC0F601322F80E202C0F8
:101DD000819331503323E1F7C20ED11CAA2319F0AD
:101DE000F601A1936F01F6013196E2FE05C09EE473
:101DF000D6019C9381E404C09EE6D6019C9381E6C3
:101E000011968C9391833296DF01832F90E202C06A
:101E10009D9381508823E1F7E30FF11D40C0E2FE5E
:101E200042C0AA2311F423E001C024E0211710F0DE
:101E300020E002C0121B212FEB2CB4FE02C0922F17
:101E40000AC0F601922F80E202C08193915099233B
:101E5000E1F7C20ED11CAA2319F0F601A1936F017C
:101E6000F6013196E2FE08C089E4D6018C938EE437
:101E700011968C9386E407C089E6D6018C938EE692
:101E800011968C9386E681833296DF01892F20E2BA
:101E900002C02D9381508823E1F7E90FF11D1082D4
:101EA0002EEF3FEFAFC0161617061CF041E050E0D2
:101EB00003C0AB014F5F5F4FAA2019F480E090E0B0
:101EC00003C08A2D90E0019620E030E0AA2311F0B3
:101ED00021E030E0240F351F280F391F812F90E0BB
:101EE0002817390714F020E002C0121B212F4B2DB8
:101EF00050E0CA0180719070B4FC0DC0B3FC0BC0FF
:101F0000F601322F40E202C0419331503323E1F712
:101F1000C20ED11C01C0322FAA2319F0F601A193E1
:101F20006F01892B11F0132F0AC0F601132F80E3E4
:101F300002C0819311501123E1F7C30ED11C092D6A
:101F4000060FBA8090E1892E912C8E209F20E4FE0E
:101F500004C0F1E3BF1609F40150101614F001E0BB
:101F600003C0093008F008E09B0177FF02C020E0C1
:101F700030E0CB010196821B930BFE013196E80FF6
:101F8000F91F8EE2F82E3B01601A71088A2D90E04D
:101F900044275527481B590B8FEF2F3F380719F45B
:101FA000D601FD926D01621773072CF0621673065D
:101FB00014F4808101C080E3215030403196241711
:101FC000350724F0D6018D936D01E6CF261737072C
:101FD00049F4B5E3BB1528F0BB1621F48114910434
:101FE00009F481E3F6018193D601812F90E202C0CA
:101FF0009C93815011968823D9F7E10FF11D10822F
:1020000020E030E0C9012996EEE00C9430572830EA
:1020100008F027E03327DA01990F311D87FD916021
:1020200000966105710539F432602E5F3D9330E30F
:102030002A95E1F708959F3F30F0803871056105DA
:1020400009F03C5F3C5F3D93913008F08068911D42
:10205000DF93CF931F930F93FF92EF92192F987FE7
:102060009695E92F96959695E90FFF27EA53F54E39
:1020700099273327EE24FF24A701E7010590089450
:10208000079428F4360FE71EF81E491F511D660FEE
:10209000771F881F991F0694A1F70590079428F4CD
:1020A000E70EF81E491F561FC11D770F881F991F85
:1020B000661F0694A1F70590079428F4F80E491FAF
:1020C000561FC71FD11D880F991F661F771F0694C3
:1020D000A1F70590079420F4490F561FC71FD81F7A
:1020E000990F661F771F881F0694A9F78491109592
:1020F000177041F0D695C79557954795F794E79493
:102100001A95C1F7ECE6FAE16894159015913591AE
:102110006591959105907FE27395E118F10A430B63
:10212000560BC90BD009C0F7E10CF11E431F561F17
:10213000C91FD01D7EF4703311F48A95E6CFE89460
:10214000015030F0080F0AF40027021708F4202F7E
:102150002395022F7A3328F079E37D932A95E9F7C6
:1021600010C07D932A9589F60694979567953795C3
:1021700017951794E118F10A430B560BC90BD009B8
:1021800098F023957E9173957A3308F070E37C93F1
:102190002013B8F77E9170617D9330F0839571E3E1
:1021A0007D9370E32A95E1F71124EF90FF900F9152
:1021B0001F91CF91DF91992787FD90950895DC01BC
:1021C000FC01672F71917723E1F7329704C07C916E
:1021D0006D9370836291AE17BF07C8F308950F9394
:1021E0008130910581F56F5F7F4FB1F58AEF93E004
:1021F00069E329E330E340E050E00E9408238BE0EC
:1022000094E066E10E94662889E194E06BE074E066
:102210000E949C2884E394E067E146E10E947C2BC5
:1022200080EE95E060E040E020E000E00E94074E94
:1022300081E494E00E94B33585ED95E060E072E0C2
:102240000E94925309C0892B39F46F5F7F4F21F4AC
:1022500085ED95E00E94C2530F91089580E090E0D3
:102260006FEF7FEFBCCF81E090E06FEF7FEFB7CFF4
:102270000F931F9301E414E0C80164E976E00E9423
:10228000E34EC80165E776E00E94E34EC8016AE5C7
:1022900076E00E94E34EC8016BE376E00E94E34ED5
:1022A000C80163E276E00E94E34EC80161E176E096
:1022B0000E94E34EC8010E94C34E1F910F910895E2
:1022C0000F931F9301E414E0C80164E871E00E94D9
:1022D000E34EC80165E671E00E94E34EC8016AE47E
:1022E00071E00E94E34EC8016BE271E00E94E34E90
:1022F000C80163E171E00E94E34EC80161E071E052
:102300000E94E34EC8010E94C34EC80166EF70E010
:102310000E94B736C80167EC74E00E946636C801B7
:1023200066EE70E00E94D5366091D5057091D605B5
:10233000C8010E948C36C80164EE70E00E94D53658
:10234000C8010E94FA361F910F910895EF92FF92F3
:102350000F931F93CF93DF9383E79AE066EF74E0C8
:102360000E94984E87E597E066EB74E040E150E00C
:102370000E94E83387E597E063EE74E00E94984E90
:1023800087E597E067EC74E00E944B5087E597E0A3
:1023900062ED74E00E94984E80918702882309F0D4
:1023A0004FC087E597E063ED73E00E944B5087E5EF
:1023B00097E060ED74E00E94984E87E597E069ED44
:1023C00073E00E944B5087E597E06EEC74E00E944A
:1023D000984E87E597E060EE73E00E944B5087E5EA
:1023E00097E06CEC74E00E94984E87E597E067EE0A
:1023F00073E00E944B5087E597E06AEC74E00E941E
:10240000984E87E597E06EEE73E00E944B5087E5AB
:1024100097E068EC74E00E94984E87E597E06EECD8
:1024200073E00E944B5087E597E066EC74E00E94F1
:10243000984E87E597E064EF73E00E944B5012C01E
:1024400087E597E067E872E00E944B5087E597E0E8
:1024500064EC74E00E94984E87E597E06CEB74E0C2
:102460000E94984E87E597E060EE73E00E944B5023
:1024700087E597E00E949833F82EE92E83E79AE0EB
:1024800067EB74E00E94E34E83E79AE06DE974E045
:102490000E94984E81E494E065EA72E040E550E0E5
:1024A00027E000E010E00E94F043882309F41FC2F7
:1024B00080918602882309F402C183E79AE06DE8DF
:1024C00074E00E94E34E83E79AE06AE774E00E94BA
:1024D000984E83E79AE067EC74E00E944B5083E7E4
:1024E0009AE069E674E00E94E34E83E79AE061E5D2
:1024F00074E00E94E34E83E79AE062E274E00E9497
:10250000E34E83E79AE062EF73E00E94E34E83E7D5
:102510009AE067ED73E00E94E34E83E79AE06CEB8C
:1025200073E00E94984E83E79AE065EA74E00E94A7
:102530004B5083E79AE06AEB73E00E94984E8F2D30
:102540009E2D9C01E901E881F0E094E0F595E79586
:102550009A95E1F7EF5FFD4F83E79AE060810E9473
:10256000BB4EE991F0E0EF70F070EF5FFD4F83E755
:102570009AE060810E94BB4E0F5F1F4F0032110531
:1025800011F783E79AE00E94C34E83E79AE06DEA71
:1025900073E00E94984E83E79AE060EE73E00E9439
:1025A0004D5083E79AE067E773E00E94E34E83E7CC
:1025B0009AE06FE573E00E94E34E809187028823E2
:1025C00031F083E79AE06DE473E00E94E34E83E725
:1025D0009AE06BE373E00E94E34E83E79AE00E9487
:1025E000C34E80918702882309F04FC083E79AE0A9
:1025F00063ED73E00E944B5083E79AE069E373E078
:102600000E94984E83E79AE069ED73E00E944B5078
:1026100083E79AE067E373E00E94984E83E79AE0CD
:1026200060EE73E00E944B5083E79AE065E373E04D
:102630000E94984E83E79AE067EE73E00E944B5049
:1026400083E79AE063E373E00E94984E83E79AE0A1
:102650006EEE73E00E944B5083E79AE061E373E013
:102660000E94984E83E79AE06EEC73E00E944B5014
:1026700083E79AE06FE273E00E94984E83E79AE066
:1026800064EF73E00E944B5012C083E79AE067E862
:1026900072E00E944B5083E79AE06DE273E00E9483
:1026A000984E83E79AE065E273E00E94984E83E7D4
:1026B0009AE00E94C34E83E79AE00E94C34E83E7EC
:1026C0009AE06EE073E00E94984E81E494E06BEF34
:1026D00072E00E94984E81E494E067EC74E00E94FE
:1026E0004B5081E494E06AEE72E00E94E34E81E494
:1026F00094E062ED72E00E94E34E81E494E063EACC
:1027000072E00E94E34E81E494E063E772E00E948D
:10271000E34E81E494E068E572E00E94E34E81E4D8
:1027200094E06DE372E00E94984E81E494E065EAE3
:1027300074E00E944B5081E494E06BE372E00E94ED
:10274000984E8F2D9E2D9C01E90100E010E0E8815C
:10275000F0E084E0F595E7958A95E1F7EF5FFD4FAE
:1027600081E494E060810E94BB4EE991F0E0EF705B
:10277000F070EF5FFD4F81E494E060810E94BB4EFA
:102780000F5F1F4F0032110511F781E494E00E94A2
:10279000C34E81E494E06EE272E00E94984E81E4C0
:1027A00094E060EE73E00E944D5081E494E068EFA5
:1027B00071E00E94E34E81E494E060EE71E00E94DB
:1027C000E34E80918702882331F081E494E06EEC3F
:1027D00071E00E94E34E81E494E06CEB71E00E94B2
:1027E000E34E81E494E00E94C34E809187028823E7
:1027F00009F04FC081E494E063ED73E00E94663617
:1028000081E494E06AEB71E00E94B73681E494E0E1
:1028100069ED73E00E94663681E494E068EB71E054
:102820000E94B73681E494E060EE73E00E94663661
:1028300081E494E066EB71E00E94B73681E494E0B5
:1028400067EE73E00E94663681E494E064EB71E029
:102850000E94B73681E494E06EEE73E00E94663623
:1028600081E494E062EB71E00E94B73681E494E089
:102870006EEC73E00E94663681E494E060EB71E0F8
:102880000E94B73681E494E064EF73E00E946636FC
:1028900012C081E494E067E872E00E94663681E449
:1028A00094E06EEA71E00E94B73681E494E066EA53
:1028B00071E00E94B73681E494E00E94FA360E94EB
:1028C000664620919A0230919B0240919C02509161
:1028D0009D02260F371F481F591F2093DC05309398
:1028E000DD054093DE055093DF0581E00AC083E7F4
:1028F0009AE064E971E00E94E34E81E080939902DE
:1029000080E0DF91CF911F910F91FF90EF9008959C
:10291000CF93DF9383E79AE06DE775E00E94984ECE
:1029200081E494E068EF74E048EC50E021E00E941C
:10293000CF3CBC0185ED95E00E94AB53C0E0D0E0F8
:102940008091D9059091DA050397C8F4C330D10579
:10295000B1F083E79AE061E675E00E94E34E81E41E
:1029600094E068EF74E048EC50E021E00E94CF3C36
:10297000BC0185ED95E00E94AB532196E1CFDF913C
:10298000CF91089583E79AE062EA77E00E94E34EF0
:1029900006C083E79AE068EF74E00E944D5081E43E
:1029A00094E068EF74E048EC50E024EF31E00E94DE
:1029B000CD37181619066CF383DC83E79AE064E9D7
:1029C00077E00C94E34E06C064E670E080E090E0AF
:1029D0000E94744685E99AE00E94274C892BA1F356
:1029E000089568EE73E080E090E00E94744685E907
:1029F0009AE06FE279E00E94984EE5DF04C085E935
:102A00009AE00E94584C85E99AE00E94274C1816DB
:102A10001906ACF385E99AE062E172E00E944B503E
:102A2000D2DF85E99AE06AE279E048E259E00E9463
:102A30008752882329F083E79AE068E179E02AC089
:102A400083E79AE066E079E00E94984E85E99AE093
:102A500067EF78E00E94984EB6DF85E99AE064EF70
:102A600078E041EF58E00E9487528823A9F085E979
:102A70009AE069EE78E00E94984EA5DF85E99AE039
:102A800060EE78E00E949F52882361F083E79AE02D
:102A900068ED78E00C94E34E83E79AE06AEC78E026
:102AA0000C94E34E0895CF92DF92EF92FF920F9332
:102AB0001F93DF93CF93CDB7DEB762970FB6F8942D
:102AC000DEBF0FBECDBF6C0181E494E08E010F5FCD
:102AD0001F4FB80142E150E00E940441EE24FF2460
:102AE00020E030E0C90163E070E00E94CA5602971E
:102AF00059F0F601EE0DFF1DD801A20FB31F8C9106
:102B000080830894E11CF11C2F5F3F4F2231310577
:102B100049F762960FB6F894DEBF0FBECDBFCF91D6
:102B2000DF911F910F91FF90EF90DF90CF9008956C
:102B300086E260E00E94FE4864EF71E080E090E091
:102B40000E94744686E261E00C94FE4883E79AE0B6
:102B500062EF7BE00E94E34EEBDF29E088E190E04A
:102B60000FB6F894A895809360000FBE2093600084
:102B700068EE73E080E090E00C94744681E494E0A9
:102B800066EB74E041E150E00E94FE4083E79AE08A
:102B900063E076E00E94984E83E79AE066EB74E08B
:102BA0000E944D5081E494E065EA74E041E150E018
:102BB0000E94F84083E79AE065EF75E00E94984E26
:102BC00083E79AE065EA74E00E944D508091B60474
:102BD000823789F483E79AE069ED75E00E94E34E5D
:102BE00081E494E066E974E00E94C93C81E494E0E9
:102BF0000E94E73BABDF83E79AE00C94C34E0F9350
:102C00001F93DF93CF93CDB7DEB7E0970FB6F8945D
:102C1000DEBF0FBECDBF83E79AE063E877E00E9496
:102C2000E34E81E494E06DE777E044EF51E00E94E9
:102C3000553A882359F081E494E067ED74E041E26D
:102C400050E02AE004EF11E00E94543881E494E05F
:102C500067E777E044EF51E00E94553A882361F03E
:102C600081E494E0BE016F5E7F4F40E250E02AE0D5
:102C700004EF11E00E94543881E494E061E777E0CA
:102C800044EF51E00E94553A882361F081E494E0DA
:102C9000BE016F5F7F4F40E150E02AE004EF11E09A
:102CA0000E94543881E494E06BE677E044EF51E011
:102CB0000E94553A882359F081E494E066EB74E071
:102CC00041E150E02AE004EF11E00E94543881E431
:102CD00094E065E677E044EF51E00E94553A88239E
:102CE00051F081E494E065EA74E041E150E024EFC2
:102CF00031E00E94CD37BCDA81E494E069E577E009
:102D00000E94B73681E494E067ED74E00E94663675
:102D100081E494E06CE477E00E94B73681E494E0CB
:102D2000BE016F5E7F4F0E94663681E494E06FE3E0
:102D300077E00E94B73681E494E0BE016F5F7F4F79
:102D40000E94663681E494E062E377E00E94B73641
:102D500081E494E066EB74E00E94663681E494E0DE
:102D600065E277E00E94B73681E494E065EA74E0BA
:102D70000E94663681E494E061E277E00E94D536F5
:102D800081E494E00E94FA3681E494E063E00E94DA
:102D90007F3E882331F083E79AE060E177E00E948C
:102DA000E34E81E494E0BE016F5E7F4F0E94883C59
:102DB000882331F083E79AE064E077E00E94E34EF5
:102DC00081E494E064E172E00E94C93C882331F020
:102DD00083E79AE062EF76E00E94984E81E494E007
:102DE00068EF74E048EC50E00E94EC40BC0183E7DF
:102DF0009AE00E944D5081E494E067ED74E00E94F7
:102E0000723C882331F083E79AE064EE76E00E941A
:102E1000984E81E494E068EF74E048EC50E00E9442
:102E2000F240BC0183E79AE00E944D5081E494E0B7
:102E300061E00E94723E882331F083E79AE066EDFC
:102E400076E00E94984E81E494E00E94E640682F6C
:102E500083E79AE04AE050E00E94C24F81E494E0A8
:102E600066EB74E00E945234882331F083E79AE0E5
:102E700061EC76E00E94984E81E494E068EF74E0A3
:102E800048EC50E00E94FE40BC0183E79AE00E94BB
:102E90004D5081E494E065EA74E00E944C3488234C
:102EA00031F083E79AE06DEA76E00E94984E81E483
:102EB00094E068EF74E048EC50E00E94F840BC01F8
:102EC00083E79AE00E944D5081E494E00E94E73B42
:102ED000882331F083E79AE064EA76E00E94E34ECB
:102EE00035DEE0960FB6F894DEBF0FBECDBFCF91B2
:102EF000DF911F910F91089581E494E068EF74E0F1
:102F000048EC50E024EF31E00E94CD37892B09F4E2
:102F1000A0C088EF94E06FE278E043E050E00E94C8
:102F20001D0E892BE1F188EF94E06AE278E044E03D
:102F300050E00E941D0E892B91F188EF94E064E22D
:102F400078E045E050E00E941D0E892B41F188EFAA
:102F500094E06DE178E046E050E00E941D0E892B80
:102F6000F1F088EF94E065E178E047E050E00E94FE
:102F70001D0E892BA1F088EF94E06CE078E048E02A
:102F800050E00E941D0E892B51F088EF94E062E022
:102F900078E049E050E00E941D0E892B09F4F2CC44
:102FA00088EF94E06DEF77E044E050E00E941D0E62
:102FB000892BE1F188EF94E068EF77E045E050E09D
:102FC0000E941D0E892B91F188EF94E063EF77E06A
:102FD00046E050E00E941D0E892B41F188EF94E0FD
:102FE0006EEE77E047E050E00E941D0E892BF1F075
:102FF00088EF94E065EE77E048E050E00E941D0E17
:10300000892BA1F088EF94E06BED77E049E050E088
:103010000E941D0E892B51F088EF94E060ED77E05F
:103020004AE050E00E941D0E892B09F4E8CD83E7A9
:103030009AE06AEB77E00E94984E83E79AE068EFA7
:1030400074E00E944D5081E494E064EF71E00C94D0
:10305000FD4208951F920F920FB60F920BB60F927A
:1030600011242F933F934F935F936F937F938F938D
:103070009F93AF93BF93EF93FF930E946646209177
:10308000C2033091C3034091C4035091C503621B36
:10309000730B840B950B695C7F4A8040904068F00D
:1030A0008091C6039091C703A091C803B091C90352
:1030B0000097A105B10509F049DDFF91EF91BF919E
:1030C000AF919F918F917F916F915F914F913F91C0
:1030D0002F910F900BBE0F900FBE0F901F90189561
:1030E000CF92DF92EF92FF920F931F9333E7C32E9D
:1030F0003AE0D32EC60165EE79E00E94984E8CE34B
:103100000E943947E0909502F09096020091970254
:1031100010919802AA2797FDA095BA2FBC01CD0166
:103120000E94A85520919102309192024091930201
:10313000509194020E94A85420918D0230918E02E9
:1031400040918F02509190020E940D55A801970165
:103150000E9434569B01AC01C801B7010E94A854DB
:1031600024EFE22E23E0F22E44E022E087010E94C9
:10317000EB0DC601B7010E944D501F910F91FF90BA
:10318000EF90DF90CF9008951F93CF93DF9383E765
:103190009AE067EF79E00E94984E89ED9AE060EE40
:1031A00073E00E944B5089ED9AE065EF79E00E9450
:1031B000984EC0E0D0E00CC064E670E080E090E0A3
:1031C0000E9474462196C333D10511F410E021C04A
:1031D00089ED9AE00E94274C892B71F3F7CF1123D8
:1031E000A1F489ED9AE00E94F751DC01CB016EEC6D
:1031F00073E04AE050E00E94860E83E79AE06EECAE
:1032000073E00E944D5011E004C089ED9AE00E94E5
:10321000584C89ED9AE00E94274C18161906FCF2CA
:10322000DF91CF911F910895AC0160E070E089EDCE
:103230009AE00E94A04B89ED9AE040E757E160E0F8
:1032400070E00E94A25089ED9AE068E17AE00E9465
:10325000984E6CE271E080E090E00E94744689ED47
:103260009AE064E17AE00E94984E6CE271E080E0BE
:1032700090E00E94744689ED9AE06FE07AE00E9447
:10328000984E6CE271E080E090E00E94744689ED17
:103290009AE06CE07AE00E94984E6CE271E080E087
:1032A00090E00E94744604C089ED9AE00E94584C58
:1032B00089ED9AE00E94274C18161906ACF383E7B3
:1032C0009AE067E07AE00C94E34E0F931F9307EBCC
:1032D0001AE0AC0160E070E0C8010E94A04BC80198
:1032E00040E757E160E070E00E94A250C80167E348
:1032F0007AE00E94984E64E170E080E090E00E94E5
:103300007446C80163E37AE00E94984E64EF71E06E
:1033100080E090E00E94744683E79AE06EE27AE0F3
:103320000E94E34E1F910F910895CF92DF92EF928A
:10333000FF920F931F9353E7C52E5AE0D52EC60177
:103340006EE17AE00E94984E07EB1AE0C80160EE49
:1033500073E00E944B50C8016CE17AE00E94984EE5
:1033600064EF71E080E090E00E947446C8010E9422
:1033700088514EEEE42E43E0F42E44E022E0870133
:103380000E94EB0DC601B7010E944D501F910F9195
:10339000FF90EF90DF90CF900895CF92DF92EF9261
:1033A000FF920F931F93F3E7EF2EFAE0FF2EC70172
:1033B0006BE37AE00E94984E84E394E00E944E2CE6
:1033C000E7EECE2EE3E0DE2E44E022E086010E940E
:1033D000EB0DC701B6010E944D501F910F91FF9058
:1033E000EF90DF90CF900895CF92DF92EF92FF920F
:1033F0000F931F93B3E7EB2EBAE0FB2EC7016BE4EC
:103400007AE00E94984E1092CB031092CA0384E394
:1034100094E060E00E94A42CA9EDCA2EA3E0DA2E6D
:1034200044E022E086010E94EB0DC701B6010E9434
:103430004D501F910F91FF90EF90DF90CF90089526
:10344000CF92DF92EF92FF920F931F9303E7C02E6C
:103450000AE0D02EC6016BE57AE00E94984E09E1A1
:1034600014E0C8010E944D2AC8016CE274E00E9479
:10347000782A10EEE12E13E0F12E44E022E08701DD
:103480000E94EB0DC601B7010E944D501F910F9194
:10349000FF90EF90DF90CF90089584E394E00E9436
:1034A000822B83E79AE06CE172E00E944D5089E143
:1034B00094E00E941A2B89E194E06CE274E040E011
:1034C0000E94EF2A882329F483E79AE068E77AE0EC
:1034D00004C083E79AE06BE67AE00C94E34EAF9287
:1034E000BF92CF92DF92EF92FF920F931F935C01F6
:1034F0006B017C01EE0CFF1CF701E60FF71FEE0FCE
:10350000FF1FEE52FD4F1081812F61E00E94FE48A7
:1035100064E170E080E090E00E947446812F60E0FA
:103520000E94FE4803E71AE0C8016DE97AE00E94B4
:10353000984EC801B5014AE050E00E941C50C801F5
:103540006AE97AE00E94984EC801B6014AE050E06C
:103550000E942E5087E094E0E80EF91EF701D18218
:10356000C0821F910F91FF90EF90DF90CF90BF909E
:10357000AF9008958BE161E00E944B488CE161E0DF
:103580000E944B4889E161E00E944B488AE161E07A
:103590000C944B48EF92FF920F931F93DF93CF93BE
:1035A000CDB7DEB7A4970FB6F894DEBF0FBECDBF80
:1035B00003E71AE0C80169EA7AE00E94984E8AEFB0
:1035C00093E0BE016F5F7F4F0E9416266D897E8952
:1035D0008F89988D0E947555DC01CB0123EDE22E79
:1035E00023E0F22EB7014AE050E00E94860EC801A7
:1035F000B7010E944D50A4960FB6F894DEBF0FBEDF
:10360000CDBFCF91DF911F910F91FF90EF90089563
:10361000C1DFEADE15DFC1DE88DEB6DD61CD8AEF0F
:1036200093E00E944525882339F483E79AE066EC0D
:103630007AE00E94984EFFCF83E79AE069EB7AE048
:103640000E94E34E8AEF93E061E0F3D78AEF93E0C4
:1036500062E070E00C9466260F931F938C0183E761
:103660009AE061E07CE00E94E34E17DFD8DFC801FA
:10367000DBDDC8012ADE1F910F9108950F931F9380
:103680008C01FC0160818CE070E00E946D47F801C4
:1036900061818BE070E00E946D47F80162818AE0F1
:1036A00070E00E946D471F910F91089531D983E713
:1036B0009AE065ED75E00E94905083E79AE06CE433
:1036C00075E00E94984E1092D00581E494E066E97E
:1036D00074E041E00E9438408823D1F083E79AE00B
:1036E00064E475E00E94E34E83E79AE06BE375E0E3
:1036F0000E94984E81E494E062EB73E040E150E078
:103700000E946941BC0183E79AE00E944D5006C0C7
:1037100083E79AE064E375E00E94984E81E494E0C8
:103720000E940A4180359105D1F081E494E060E582
:1037300070E00E94683E81E494E00E94E73B83E7EA
:103740009AE067E175E00E94E34E81E494E00E9414
:10375000134068EB7BE080E090E00E94744683E7D2
:103760009AE06BE075E00E94E34E87EB92E086CF33
:1037700083E79AE06FEB75E00E94984E81E494E055
:103780000E9440368823D9F481E494E060E27EE42C
:103790000E94C643882359F083E79AE068EB75E0FE
:1037A0000E94E34E8AEB92E069DF81E0089583E7AF
:1037B0009AE069EA75E00E94E34E80E0089583E7AD
:1037C0009AE066E975E00E94E34E8AEB92E056DFEC
:1037D00081E00895CF93DF9388E30E943049892BDD
:1037E00009F053C0C0E0D0E08DEB92E047DF64EF1A
:1037F00071E080E090E00E94744687EB92E03EDF4B
:1038000064EF71E080E090E00E9474462196C3303E
:10381000D10551F783E79AE06DEA78E00E94984E6F
:1038200081E494E00E94C53B882361F081E494E048
:103830000E941340882331F083E79AE066EA78E03B
:103840000E94E34E83E79AE06FE878E00E94E34E3F
:1038500081E494E060EC72E00E94C93C81E494E071
:1038600060EC72E00E94723C81E494E00E94E73BCD
:1038700083E79AE069E878E00E94E34E60ED77E044
:1038800080E090E00E94744661D9DF91CF91089565
:10389000AC0160E070E085E99AE00E94A04BA1D8FD
:1038A00081E494E065E97AE043E75AE00E946640EB
:1038B000882331F483E79AE060ED79E00E94E34EDB
:1038C00089DF81E494E00E94B53C882331F083E7EE
:1038D0009AE06FEB79E00E94E34E81E494E062E0CD
:1038E0000E945D3E882331F083E79AE061EB79E046
:1038F0000E94E34E87ED94E069EA79E00E94430E6E
:10390000892B61F481E494E060EC72E00E94C93C90
:1039100081E494E060EC72E00E94723C81E494E007
:103920000E94E73B83E79AE06BE979E00E94984EBA
:1039300081E494E067ED74E041E250E00E94F240DF
:1039400083E79AE067ED74E00E944D5087EC94E0C5
:10395000AAD883E79AE06DE879E00E94984E83E761
:103960009AE067EC74E00E944D5083E79AE06FE7BD
:1039700079E00E94984E81E494E066E974E04FE0BB
:1039800050E00E94EC4083E79AE066E974E00E9410
:103990004D5080919604823419F41092D40405C0DD
:1039A000833519F481E08093D4048091D404882372
:1039B00011F47CDE15C08FEC92E060DEDFD80DC024
:1039C0008091D5049091D60401969093D60480936B
:1039D000D5040B9714F0ACD8B9D8CADE882381F38C
:1039E0000E9466466093C2037093C3038093C4032E
:1039F0009093C50308958CE061E00E944B488BE0F2
:103A000061E00E944B488AE061E00E944B488AEDE9
:103A100092E034CE0F931F93EEDFF89414BEE0E6ED
:103A2000F0E080818861808387E48083789486E2F7
:103A300061E00E94FE4887E061E00E94FE4887E066
:103A400061E00E944B4888E360E00E944B4892DDB1
:103A500003E71AE0C80140E052EC61E070E00E9428
:103A6000A04BC8010E94C34EC80168E27CE00E94DE
:103A7000E34EC80169E17CE00E94E34E80E096E9F4
:103A8000EBDD80E895E204DF1F910F9108958DED45
:103A900092E0F4DD87E892E08252924041F583E7BC
:103AA0009AE061EE7BE00E94E34E87EB9AE06EEDD8
:103AB0007BE00E94984E60ED77E080E090E00E940D
:103AC000744687EB9AE00E94814C87EB9AE06BED9D
:103AD0007BE00E94984E87EB9AE068ED7BE00E94C5
:103AE000984E83E79AE064EC7BE00E94E34E87E81F
:103AF00092E08752924041F583E79AE063EB7BE0E6
:103B00000E94E34E87EB9AE060EB7BE00E94984EC8
:103B100060ED77E080E090E00E94744687EB9AE0E9
:103B20000E94814C87EB9AE06DEA7BE00E94984E00
:103B300087EB9AE06AEA7BE00E94984E83E79AE07E
:103B400066E97BE00E94E34E87E892E08C52924067
:103B500041F583E79AE064E87BE00E94E34E60ED84
:103B600077E080E090E00E94744687EB9AE061E89D
:103B70007BE00E94984E87EB9AE06EE77BE00E9424
:103B8000984E87EB9AE06BE77BE00E94984E87EBBC
:103B90009AE00E94814C83E79AE066E67BE00E940F
:103BA000E34E87E892E08253924091F483E79AE0F3
:103BB00066E57BE00E94E34E89ED9AE062E57BE0FA
:103BC0000E94984E83E79AE06DE37BE00E94E34E0B
:103BD00087E892E08853924021F583E79AE06BE210
:103BE0007BE00E94E34E89ED9AE068E27BE00E9470
:103BF000984E60ED77E080E090E00E94744689ED99
:103C00009AE063E27BE00E94984E87EB9AE060E2E4
:103C10007BE00E94984E83E79AE06BE07BE00E9495
:103C2000E34E87E892E08E539240F1F483E79AE006
:103C300069EF7AE00E94E34E60ED77E080E090E08B
:103C40000E94744689ED9AE065EF7AE00E94984EF2
:103C500087EB9AE062EF7AE00E94984E83E79AE061
:103C60006DED7AE00C94E34E0895EF92FF920F937E
:103C70001F93DF93CF93CDB7DEB76C970FB6F89451
:103C8000DEBF0FBECDBF81E494E06CE778E044EF87
:103C900051E00E94553A882309F487C081E494E0FA
:103CA00064E778E044EF51E00E94553A882309F434
:103CB00051C083E79AE06AE678E00E94984E81E47A
:103CC00094E060EC75E040E150E02AE004EF11E0A0
:103CD0000E94543883E79AE060EC75E00E944D50F2
:103CE0008091C205992787FD9095C0972091C605C0
:103CF000022F112707FD109500531040BC01809141
:103D00000704909108046817790721F080E090E09B
:103D1000E6DB06C08091CC039091CD03892BB1F3F3
:103D20008091090490910A040817190731F48091D1
:103D3000CC039091CD03892B21F481E090E0B80170
:103D4000CEDB8091CC039091CD0301969093CD036F
:103D50008093CC0381E494E06EE578E044EF51E099
:103D60000E94553A37E8E32E32E0F32E8823B9F06B
:103D700083E79AE060E578E00E94984E81E494E061
:103D8000B70146E050E02AE004EF11E00E94543809
:103D900083E79AE0B7010E944D5079DE1DC086E0AE
:103DA000F70111928A95E9F717C081E494E08E013A
:103DB0000F5F1F4FB8014CE150E024EF31E00E944B
:103DC000CD3783E79AE069E478E00E94E34E83E729
:103DD0009AE0B8010E944D5083E79AE063E378E0EF
:103DE0000E94E34E0E9466466093C2037093C30331
:103DF0008093C4039093C50381E494E00E941F4321
:103E000081E494E064EF71E00E94FD4281E08093E0
:103E100099026C960FB6F894DEBF0FBECDBFCF915E
:103E2000DF911F910F91FF90EF9008956AE070E08D
:103E300080E090E00E9474468091D404882341F48D
:103E400081E494E00E943342181619060CF454D809
:103E50008091D404813009F080C081E494E00E9414
:103E60003342181619060CF400CF0E9466462091C2
:103E7000D1053091D2054091D3055091D405261734
:103E800037074807590708F068C0809199028130C8
:103E900009F063C0809187028823B1F483E79AE038
:103EA0000E94C34E83E79AE069E679E00E94E34E00
:103EB000AFDB83E79AE063E579E00E94E34E83E7B6
:103EC0009AE00E94C34E0CC083E79AE067E479E071
:103ED0000E94984E83E79AE067E872E00E944D5096
:103EE00083E79AE069E379E00E94984E4091C60327
:103EF0005091C7036091C8037091C9034F5F5F4F32
:103F00006F4F7F4F4093C6035093C7036093C8031E
:103F10007093C90383E79AE02AE030E00E94894F5A
:103F200083E79AE063E379E00E94E34E10929902FE
:103F300084E492E069E472E041E00E94A6110E94EC
:103F4000664668577C4E8F4F9F4F6093D1057093A4
:103F5000D2058093D3059093D405089567DF0E941E
:103F600066462091820230918302409184025091F2
:103F70008502261737074807590710F40C94A61531
:103F8000089581E080932B0660930806109229061D
:103F900010922A0608952091070630E080910606C7
:103FA000281B3109C9010895409106068091070632
:103FB000481718F02FEF3FEF0AC0E42FF0E0EA5166
:103FC000FA4F8081282F30E04F5F40930606C901E9
:103FD0000895E091060680910706E81718F0EFEFC4
:103FE000FFEF06C0F0E0EA51FA4F8081E82FF0E0E1
:103FF000CF010895089510922F0610922E0688EE94
:1040000093E0A0E0B0E08093300690933106A09357
:104010003206B093330684EE92E090932D0680939F
:104020002C060895CF92DF92EF92FF920F931F9389
:10403000CF93DF937C016B018A0180912B0688234B
:10404000A1F0C0E0D0E00DC0D701ED91FC91D60108
:10405000AC0FBD1F0190F081E02DC7016C91199547
:104060002196C017D10780F303C0CB01642F02D182
:10407000C801DF91CF911F910F91FF90EF90DF90DA
:10408000CF900895DF93CF930F92CDB7DEB7FC01A9
:10409000698380912B068823C9F080912A0680329B
:1040A00038F081E090E09383828320E030E014C018
:1040B00080912906E82FF0E0E75FF94F998190831E
:1040C0008F5F8093290680932A0604C0CE01019653
:1040D00061E0D0D021E030E0C9010F90CF91DF91B5
:1040E00008950F93062F8091080669E076E04091CD
:1040F0002A0621E06AD01092290610922A06109210
:104100002B060F91089561E0ECCF413208F040E2B8
:10411000862F66EE75E010D0109206068093070693
:10412000089521E0F2CF1092060610920706109231
:10413000290610922A064EC2382F413210F040E074
:1041400042C0809138068823E1F791E090933806C9
:1041500020933A068FEF8093A50610926006415097
:10416000409361064F5F9093390680913906330F73
:10417000832B8093390680913B06813041F4109265
:104180003B06809139068093BB0085EC01C085EE2B
:104190008093BC00809138068130E1F38091600605
:1041A000841710F44091600620E030E00AC0FB0163
:1041B000E20FF31FD901A05CB94F8C9180832F5F70
:1041C0003F4F2417A0F3842F08950F931F93582F68
:1041D000122F413210F081E04AC0809138068823C6
:1041E000E1F782E08093380600933A068FEF8093E0
:1041F000A5061092600640936106A0E4B6E0FB01BC
:1042000002C081918D938E2F861B8417D0F310925C
:10421000390680913906550F852B80933906809198
:104220003B06813041F410923B0680913906809321
:10423000BB0085EC01C085EE8093BC00112321F00A
:10424000809138068230E1F38091A5068F3F11F40A
:1042500080E00DC08091A506803211F482E007C095
:104260008091A506803311F084E001C083E01F91A6
:104270000F910895482F613210F081E008958091E8
:104280003806843011F082E0089560938306A2E638
:10429000B6E0842F9C01F90102C081918D938E2F8D
:1042A000841B8617D0F380E008951F920F920FB6FB
:1042B0000F920BB60F9211242F933F934F935F935E
:1042C0006F937F938F939F93AF93BF93EF93FF93DE
:1042D0008091B90090E0887F90708036910509F454
:1042E000F2C081369105CCF58832910509F47BC086
:1042F00089329105B4F48031910509F46FC08131A0
:1043000091053CF4009709F447C1089709F04FC1A3
:1043100065C08831910509F466C0809709F047C1EE
:1043200082C08034910509F4A4C08134910544F41D
:104330008033910509F482C0C89709F038C189C05B
:104340008035910509F489C08835910509F496C036
:104350008834910509F02BC1AEC08839910509F464
:1043600013C189399105ECF48837910509F4ABC084
:10437000893791054CF48836910509F4A4C080373B
:10438000910509F014C19FC08838910509F4FCC05B
:104390008039910509F49DC08038910509F007C165
:1043A00098C0803B910509F4C6C0813B91054CF44F
:1043B000803A910509F49FC0883A910509F0F7C049
:1043C000BAC0803C910509F4E3C0883C910509F42A
:1043D000DFC0883B910509F0EAC0C2C08091390670
:1043E0008093BB00CFC090916006809161069817C2
:1043F00068F490916006E92FF0E0E05CF94F80816D
:104400008093BB009F5F90936006BCC080913A068A
:10441000882309F44BC085ED8093BC008091BC00DB
:1044200084FDFCCFC2C080E28093A50685ED809319
:10443000BC008091BC0084FDFCCFB7C080E38093BA
:10444000A50685ED8093BC008091BC0084FDFCCF67
:10445000ACC088E38093A5069BC0809160069091D4
:10446000BB00E82FF0E0E05CF94F90838F5F809312
:104470006006909160068091610682C0809160061E
:104480009091BB00E82FF0E0E05CF94F90838F5FE4
:104490008093600680913A06882341F085ED8093F1
:1044A000BC008091BC0084FDFCCF7FC081E0809384
:1044B0003B0684EA6EC085ED8093BC008091BC0011
:1044C00084FDFCCF72C083E0809338061092A4066E
:1044D00059C08091A406803208F056C08091A4068D
:1044E0009091BB00E82FF0E0EC57F94F90838F5F7D
:1044F0008093A40647C08091A406803230F4E091F6
:10450000A406F0E0EC57F94F108285ED8093BC00D3
:104510008091BC0084FDFCCF109238066091A40607
:10452000E0913E06F0913F0684E896E070E0199530
:104530001092A4062DC084E0809338061092820663
:1045400010928306E0913C06F0913D06199580910A
:104550008306882329F481E0809383061092620603
:1045600090918206E92FF0E0EE59F94F8081809317
:10457000BB009F5F90938206909182068091830694
:10458000981710F485EC01C085E88093BC000FC03B
:1045900085EC8093BC0009C01092A50685ED809340
:1045A000BC008091BC0084FDFCCF10923806FF91C6
:1045B000EF91BF91AF919F918F917F916F915F919B
:1045C0004F913F912F910F900BBE0F900FBE0F9008
:1045D0001F9018951092380681E080933A06109249
:1045E0003B0684E161E00E94FE4885E161E00E94B3
:1045F000FE48E9EBF0E080818E7F808380818D7FB3
:10460000808388E48093B80085E48093BC0008959B
:10461000FC0184EF92E09183808362831382148291
:104620001682158210861782218732874387548726
:104630000895FC01648308956F927F928F929F92F8
:10464000AF92BF92CF92DF92EF92FF920F931F93A0
:10465000CF93DF93FC01EA01458156814115510555
:1046600031F04130510531F488E890E905C084E229
:1046700093E102C088EE9DEF8617970708F4DEC02D
:104680008C179D0708F4DAC04115510551F04130EF
:10469000510571F417EEE12E1FE0F12E012D112DC1
:1046A0000CC0B7E1EB2EB5E7FB2E012D112D05C097
:1046B000E12CA4E0FA2E012D112D87819085892B04
:1046C00039F4E4E0EE0CFF1C001F111FEA95D1F74E
:1046D0009B0140E050E0C801B7010E9497565B0182
:1046E0006C015AE0D694C794B794A7945A95D1F721
:1046F0009E0140E050E0C801B7010E9497563B017F
:104700004C014AE096948794779467944A95D1F740
:10471000A114B104C104D10429F480E090E0A0E028
:10472000B0E00FC0C401B3013AE0660F771F881FE5
:10473000991F3A95D1F7A60195010E94DD56C9014E
:10474000DA010196A11DB11DB695A795979587959C
:1047500081349105A105B10528F462EF71E0CEEB3B
:10476000D1E049C081389105A105B10528F464E183
:1047700072E0C1EDD2E03FC0813C9105A105B105D9
:1047800028F46FE372E0CBE7D3E035C0813021E05D
:10479000920720E0A20720E0B20728F460E772E069
:1047A000CEEFD3E028C0893321E0920720E0A207B2
:1047B00020E0B20728F46FE671E0CCEFD1E01BC037
:1047C0008B3921E0920720E0A20720E0B20728F40D
:1047D00062ED70E0CBEFD0E00EC08B599240A0406C
:1047E000B04028F060E070E0C0E0D0E004C068E1D4
:1047F00070E0C2E1D0E080E090E0A60195010E9467
:1048000097567B018C0180E090E2A0E0B0E0E80EDA
:10481000F91E0A1F1B1FBE0180E090E0A401930156
:104820000E949756E61AF70A080B190B8EE01695A8
:104830000795F794E7948A95D1F703C0EE24FF24F7
:104840008701B701C801DF91CF911F910F91FF90B0
:10485000EF90DF90CF90BF90AF909F908F907F9020
:104860006F900895EF92FF920F931F937C018B013D
:1048700088E2FB0111928A95E9F7CB0160E572E0CD
:104880004BE050E00E945D0EF801138681E090E05D
:10489000A0E0B0E084879587A687B787F701818578
:1048A0009285A385B485F801808B918BA28BB38B05
:1048B00085E090E0A0E0B0E0848B958BA68BB78B71
:1048C00014A215A216A217A280E090EDA4E8B6E407
:1048D000808F918FA28FB38F80E090E0A0E0B0E056
:1048E000848F958FA68FB78F80E090E0A0E8BFE31C
:1048F00080A391A3A2A3B3A31F910F91FF90EF9068
:104900000895BF92CF92DF92EF92FF920F931F9381
:10491000B62E79018A012CE2C22E26E0D22EDC01CD
:1049200012966C91772767FD7095C6012ADBC60148
:104930006B2DA8DB8FEF90E0A0E0B0E0E822F92239
:104940000A231B23C6016E2D9DDBC601DCDB1F91F4
:104950000F91FF90EF90DF90CF90BF90089560E8A7
:1049600020E030E040E050E0CCCF60E823E030E0F1
:1049700040E050E0C6CFDF92EF92FF920F931F937B
:104980007C01D62E0CE216E0FC016281772767FDE0
:104990007095C801F6DAC8016D2D74DBC801B3DB70
:1049A000F7016281772767FD7095C80142E050E00A
:1049B000B8DBC801F9DA7C01C801F6DA382F20E04B
:1049C0002E293F29C9011F910F91FF90EF90DF9091
:1049D0000895EF92FF920F931F93CF93DF93EC0113
:1049E0008B017A01C2DF8D819E81009719F00197BA
:1049F00059F405C06EE070E080E090E009C066E622
:104A000070E080E090E004C063E971E080E090E055
:104A10000E947446CE016CEAAEDFF8019183808378
:104A2000CE016EEAA8DFF70191838083CE0197DF84
:104A3000DF91CF911F910F91FF90EF900895DF923A
:104A4000EF92FF920F931F937C01D62E0CE216E09B
:104A5000FC016281772767FD7095C80192DAC80171
:104A60006D2D10DBC8014FDBF7016281772767FDF1
:104A70007095C80141E050E054DBC80195DA1F9100
:104A80000F91FF90EF90DF900895CF93DF93EC01AB
:104A90008CE296E048DBCE016AE0D1DF8A7069F0F3
:104AA00081E08B836D817E81CE0110D16F8178850D
:104AB000CE0106D0CE0153DF81E0DF91CF91089582
:104AC0000F931F93CF93DF93EC018B018B8188238E
:104AD00011F4CE01DADFCE0148DF2D813E81202B9B
:104AE000312B442737FD4095542FCE0161E809DF73
:104AF00018870F83CE0133DFDF91CF911F910F9184
:104B000008953F924F925F926F927F928F929F9201
:104B1000AF92BF92CF92DF92EF92FF920F931F93CB
:104B2000DF93CF9300D00F92CDB7DEB78C015B013E
:104B30004A01FC018381882311F4C801A6DFF80132
:104B40008481882329F4C801B501A40142DF58C03B
:104B50003324F3E04F2E512C4C0E5D1E3E01089481
:104B6000611C711CF80185819681009751F00197B5
:104B700081F4E0EACE2EECE8DE2E78ECE72EF12C84
:104B800010C062EFC62E62E1D62E54E6E52EF12C5F
:104B900008C048E1C42E46EFD42E34EFE32E31E0B6
:104BA000F32EC801B301A20114DF29813A81332019
:104BB000F9F42E153F0548F4F80187819085892B7B
:104BC00021F4C80160E170E00BC0C216D30680F486
:104BD000F80187819085409759F4C80160E070E042
:104BE0006FDFC801B301A201F4DE33243394BACFDE
:104BF000F501318320838B819C81F4019183808333
:104C00000F900F900F900F90CF91DF911F910F9108
:104C1000FF90EF90DF90CF90BF90AF909F908F90DC
:104C20007F906F905F904F903F900895EF92FF922A
:104C30000F931F93DF93CF9300D00F92CDB7DEB7C2
:104C40007C018B0184E2FB0111928A95E9F784E2F1
:104C500090E0A0E0B0E0FB0180839183A283B38366
:104C6000F70181859285A385B485FB0184839583B3
:104C7000A683B78385E090E0A0E0B0E080879187CD
:104C8000A287B387108A118A128A138AC701BE01CC
:104C90006F5F7F4FAE014D5F5F4F33DF69817A8178
:104CA0004B815C81C701C8DC0E94A655F801648B6A
:104CB000758B868B978B0F900F900F900F90CF91E5
:104CC000DF911F910F91FF90EF9008950F931F9325
:104CD000CF93DF93EC018B018B81882311F4CE01FC
:104CE000D4DECE0142DE2F813885202B312B4427A4
:104CF00037FD4095542FCE0161E803DE1E830D83FE
:104D0000CE012DDEDF91CF911F910F910895FC010F
:104D100013861586148687E090E0128631970097F7
:104D200011F00197FACF0895DC0180E00BC0E82F65
:104D3000F0E08D9190E0E827F927E15CF34FE491F2
:104D400061508E2F662399F70895DF92EF92FF92BC
:104D50000F931F93FC01E08001811281F894F80108
:104D600081818E2981838281DE2CD0948D21828362
:104D700083E090E00E94CD46F80181818D218183FE
:104D80008AE090E00E94CD46F8010081789485E3A6
:104D900090E00E94CD4680E010E0FF240E211F210C
:104DA000012B09F081E01F910F91FF90EF90DF90B0
:104DB0000895EF92FF920F931F93CF93DF937C019F
:104DC00001E010E0C0E0D0E0C701BFDF8111102B8F
:104DD000000F2196C830D105B9F7812FDF91CF910F
:104DE0001F910F91FF90EF9008951F93CF93DF9342
:104DF000FC011081C181D281912F909560FF12C07A
:104E0000F8948A8189238A838981812B89838AE026
:104E100090E00E94CD468A81812B8A83789487E333
:104E200090E011C0F8948A8189238A838981812B3B
:104E3000898381E490E00E94CD468A81812B8A8318
:104E4000789485E090E00E94CD46DF91CF911F914C
:104E50000895CF92DF92EF92FF920F931F93CF931B
:104E6000DF938C01E42EFF24F394C0E0D0E0C62E43
:104E7000DD2460E08F2D90E08C219D21892B09F0AD
:104E800061E0C801B2DFFF0C2196C830D10589F777
:104E9000EE20A9F4F894D8011196ED91FC911297A7
:104EA00091818C918095982391831196ED91FC913D
:104EB000129792818C918095982392837894DF91B8
:104EC000CF911F910F91FF90EF90DF90CF900895B9
:104ED0006CEC40E0BECFEF92FF920F931F93CF9305
:104EE000DF938C017B0165E540E0B3DFC0E0D0E0FB
:104EF000F701EC0FFD1FC801608140E0AADF219699
:104F0000C830D105A9F7DF91CF911F910F91FF9084
:104F1000EF900895DF92EF92FF920F931F93CF933C
:104F2000DF93FC010081C181D281F8948981D02E68
:104F3000D0948D21898378941DE7E02EFF241150B1
:104F400059F182E090E00E94CD46888190E08E2168
:104F50009F21892BA1F3F8948A818D218A838981ED
:104F6000802B8983789484EF91E00E94CD46F89459
:104F700089818D21898380E590E00E94CD468881DA
:104F800010E090E0E822F922EF2809F411E078948B
:104F900084EA91E00E94CD46812FDF91CF911F914D
:104FA0000F91FF90EF90DF900895AF92BF92DF9244
:104FB000EF92FF920F931F93CF93DF93EC015B016E
:104FC0008D85882309F05CC0CE01A4DF882329F4F5
:104FD0001B861D861C8690E067C0CE0160EF40E016
:104FE00038DF01E0DD24EE24FF24F394CE01ADDEB2
:104FF000182FCE01AADE113019F48130E1F438C047
:10500000181709F58B85081770F460E0FE01EE0DA6
:10501000F11D838190E02F2D30E082239323181619
:1050200019064CF003C060E0081729F0093008F0B9
:105030004BC00C8749C0FE01EE0DF11D83818F2905
:10504000838361E009C0612FFE01EE0DF11D9F2DEC
:105050009095838189238383CE01C7DE0F5FFF0C88
:1050600019F4E394FF24F39487E08E1508F0BECF83
:10507000013430F0DB86DD2011F581E08D871FC023
:105080001B861D861C8690E0DE0120E030E0F501E5
:10509000E20FF31F13968C91139780832F5F3F4F7E
:1050A00011962830310599F7892FDF91CF911F9103
:1050B0000F91FF90EF90DF90BF90AF9008958B819C
:1050C0008823F1F291E0E0CFD02EBECFFF920F9374
:1050D0001F938C01F62E862F60E00E944B488F2D87
:1050E00090E0FC01E052F64EE491D801EC93865634
:1050F000964EFC016491E62FF0E0EE0FFF1FE058A2
:10510000F64E8591949112969C938E9311971B96CF
:105110001C921B971D961C921D971C961C92F801C1
:1051200087E090E012863197009711F00197FACF4F
:105130001F910F91FF900895FC0182E699E2928BF6
:10514000818B768365831482108289E0818381E07C
:105150008283838308956F927F928F929F92AF9202
:10516000BF92CF92DF92EF92FF920F931F93CF9354
:10517000DF93FB01EA01998180E0288130E0282B50
:10518000392BE081E23231F0E83221F0E03109F0F0
:1051900084C04BC04C814F3329F1403420F44F314F
:1051A00009F07BC02FC04F3579F04F3709F075C03B
:1051B000B901882777FD8095982F0E94A85520E097
:1051C00030E040E85DE32EC035952795B90188278A
:1051D00077FD8095982F0E94A85520E030E040E0B0
:1051E0005EE320C03595279535952795B901882729
:1051F00077FD8095982F0E94A85520E030E040E888
:105200005EE310C093E0359527959A95E1F7B901D3
:10521000882777FD8095982F0E94A85520E030E0E0
:1052200040E05FE30E94345632C0EF803595279509
:10523000B901882777FD8095982F0E94A85520E016
:1052400030E040E85EE30E94A8543B014C016E2D23
:1052500070E02E81621B7109882777FD8095982F59
:105260000E94A8555B016C01FF2400E010E0C8011A
:10527000B7010E94A6559B01AC01C601B5010E9471
:105280000D559B01AC01C401B3010E94A9549B01BF
:10529000AC01832F942F752F00C0262F382F492F54
:1052A000572FB901CA01DF91CF911F910F91FF9044
:1052B000EF90DF90CF90BF90AF909F908F907F90B6
:1052C0006F9008950895EF92FF920F931F938C01B2
:1052D0007B01FC01858196811DDEF8018581968127
:1052E000B701F9DDF8018581968164EB40E0B1DD1D
:1052F000F8018581968129DDF82EF8018581968156
:1053000009DE80E0FF2009F481E01F910F91FF90FA
:10531000EF900895CF92DF92EF92FF920F931F9339
:105320008C016B017A01FC0185819681F3DDF80126
:1053300085819681B601CFDDF801858196816EEB7E
:1053400040E087DDF8018581968133DDF7018083B8
:10535000F801858196812DDDF7018183F801858132
:10536000968127DDF7018283F8018581968121DD11
:10537000F7018383F801858196811BDDF701848322
:10538000F8018581968115DDF7018583F801858116
:1053900096810FDDF7018683F8018581968109DD0D
:1053A000F7018783F8018581968103DDF701808706
:1053B000F80185819681AEDD1F910F91FF90EF90EE
:1053C000DF90CF900895DF93CF93CDB7DEB72997C5
:1053D0000FB6F894DEBF0FBECDBFAE014F5F5F4F7B
:1053E00099DF8981811181E029960FB6F894DEBF9B
:1053F0000FBECDBFCF91DF910895CF92DF92EF9294
:10540000FF920F931F93CF93DF93EC016B01452B1A
:10541000D9F08B818823C1F088818823A9F40E9468
:1054200066467B018C01CE0160E070E0CCDF882312
:1054300059F40E9466466E197F09800B910B6E5ECF
:1054400072408040904078F3F6016081693039F015
:105450006930A0F06A3041F06B3081F40AC06EE52B
:1054600070E080E090E00EC06CEB70E080E090E0D7
:1054700009C067E771E080E090E004C06EEE72E082
:1054800080E090E00E947446DF91CF911F910F91D0
:10549000FF90EF90DF90CF900895CF93DF93EC01D2
:1054A0008D819E8137DD8D819E8112DD8D819E8172
:1054B00064E44881CEDC8A81882331F0CE012196D4
:1054C000BE0140E050E099DFDF91CF9108950F9346
:1054D0001F938A011FDFC80168E026DC20E0F80185
:1054E0009085891709F421E0822F1F910F9108956B
:1054F000CF92DF92EF92FF920F931F93DF93CF93A0
:10550000CDB7DEB729970FB6F894DEBF0FBECDBF7B
:105510008C017B016E010894C11CD11CA601D7DF50
:10552000882329F460E070E08EEF92EC04C0C8019B
:10553000B701A60110DE29960FB6F894DEBF0FBEA4
:10554000CDBFCF91DF911F910F91FF90EF90DF9032
:10555000CF900895DF93CF93CDB7DEB729970FB6DD
:10556000F894DEBF0FBECDBF9C01FB01808180316E
:10557000D1F0C901AE014F5F5F4FA9DF8823A9F0C9
:105580008D818F3371F0803418F48F3171F40BC03A
:105590008F3519F08F3749F402C08BE007C08CE0DB
:1055A00005C08AE003C089E001C080E029960FB6FB
:1055B000F894DEBF0FBECDBFCF91DF9108950F935A
:1055C0001F938B01CB0167E0AFDB20E0F8019781EF
:1055D000891709F421E0822F1F910F910895EF920E
:1055E000FF920F931F93CF93DF93EC017B01042F66
:1055F0008D819E818CDB10E006C0CE01B701DFDF1C
:105600008823A1F009C08D819E81B701CEDC88235B
:1056100029F0101759F4F1CF81E001C080E0DF914B
:10562000CF911F910F91FF90EF9008951F5F011789
:10563000A8F3E9CFAF92BF92CF92DF92EF92FF92A1
:105640000F931F93DF93CF93CDB7DEB761970FB65C
:10565000F894DEBF0FBECDBF7C01FC018581968131
:1056600056DBF70114826E010894C11CD11C79E04D
:10567000A72EB12CAC0EBD1E01E026C0C701B6019D
:105680009EDF882309F1F7018081882339F4C7015F
:10569000B60119DE882311F0F7010083C701B601B6
:1056A000A50138DEF7011181C701B60153DF81176B
:1056B00018F4F701818103C0C701B6014BDFF70180
:1056C000818384818F5F8483F70185819681B60110
:1056D0006CDC882399F661960FB6F894DEBF0FBE96
:1056E000CDBFCF91DF911F910F91FF90EF90DF9091
:1056F000CF90BF90AF900895FC016683478381E00F
:10570000848708950F931F938C01FC01868160E0CC
:105710000E944B48F801868161E00E94FE48F80132
:1057200010861186128613861F910F910895CF92CD
:10573000DF92EF92FF920F931F93CF93DF93EC01D1
:105740008E8161E00E94FE486AEF70E080E090E0A8
:105750000E9474460E9466469B01AC01888599852B
:10576000AA85BB85281739074A075B0720F41886E6
:1057700019861A861B868C85882371F488859985FD
:10578000AA85BB85281B390B4A0B5B0B205D374074
:105790004040504008F477C01C860E9466466887E7
:1057A00079878A879B871C821B821A8219821882BA
:1057B0008E8161E00E944B488E8160E00E94FE482D
:1057C00064E170E080E090E00E947446F8948E817D
:1057D00061E00E94FE4888E290E00E94CD468E8102
:1057E00060E00E944B4881E0EE2400E010E00AC037
:1057F000F39481E090E00E94CD462FEFF21629F459
:105800000AC0892FFF24C82EDD248E810E943049D2
:105810008C159D0569F38E810E943049982F8FEF7A
:10582000F816C9F0043090F000FD10C08E2D86955A
:1058300086958695FE01E80FF11D8081880F808393
:1058400026E02F1510F481608083E3940F5F1F4FD3
:1058500005351105B1F6789487E28E1510F030E029
:1058600013C030E04C8150E02981888190E0820FA4
:10587000911D2A81820F911D2B81820F911D9070A5
:105880004817590709F431E0832FDF91CF911F9119
:105890000F91FF90EF90DF90CF900895EF92FF92DD
:1058A0000F931F93CF93DF93EC0141DF8823A9F17E
:1058B0008F818B3031F08B3080F18551823068F5EB
:1058C00007C0688170E080E090E00E94A65522C089
:1058D000688170E080E090E00E94A65520E030E012
:1058E00040E853E40E9434567B018C01698170E0EA
:1058F000882777FD8095982F0E94A8559B01AC01C1
:10590000C801B7010E94A95420E030E040E251E410
:105910000E940D55E62F692F0AC083E79AE068E5DB
:1059200072E00E944B50E0E070E080EC6FE72E2FB9
:10593000372F482F562FB901CA01DF91CF911F9100
:105940000F91FF90EF900895CF92DF92EF92FF9228
:105950000F931F93CF93DF93EC01C62EE8DE8823CD
:1059600009F450C08F818B3041F08B3008F44AC06D
:105970008551823008F046C007C06A8170E080E03F
:1059800090E00E94A65529C0DA806D2D70E06F77F7
:105990007070882777FD8095982F0E94A85520E089
:1059A00030E040E853E40E9434567B018C016B8167
:1059B00070E0882777FD8095982F0E94A8559B015D
:1059C000AC01C801B7010E94A95420E030E040E2D8
:1059D00051E40E940D55D7FC9058CC20E9F020E00E
:1059E00030E040E151E40E94345620E030E040EAEB
:1059F00050E40E940D5520E030E040E052E40E9467
:105A0000A9540AC083E79AE068E572E00E944B500F
:105A100060E070E080EC9FE7DF91CF911F910F91E4
:105A2000FF90EF90DF90CF9008952F923F924F928A
:105A30005F926F927F928F929F92AF92BF92CF921E
:105A4000DF92EF92FF920F931F93DF93CF93CDB727
:105A5000DEB762970FB6F894DEBF0FBECDBF8B5B8B
:105A60009F4FDC012D913D914D915D912D833E83A2
:105A70004F8358872D903D904D905D906D907D9017
:105A80008D909D902D913D914D915D9129833A830B
:105A90004B835C832D913D914D915C9113972B87A6
:105AA0003C874D875E87A555B040B88BAF871A8677
:105AB00019861985103108F469C069857A856F7077
:105AC00070706F5F7F4F660F771F660F771FEF85D0
:105AD000F8896E0F7F1FA985BA851D96AF70B070CB
